{
  "_format": "hh-sol-artifact-1",
  "contractName": "SwapMock",
  "sourceName": "contracts/SwapMock.sol",
  "abi": [
    {
      "inputs": [
        {
          "internalType": "address",
          "name": "_usdt",
          "type": "address"
        },
        {
          "internalType": "address",
          "name": "_doge",
          "type": "address"
        }
      ],
      "stateMutability": "nonpayable",
      "type": "constructor"
    },
    {
      "inputs": [],
      "name": "dogeAddress",
      "outputs": [
        {
          "internalType": "address",
          "name": "",
          "type": "address"
        }
      ],
      "stateMutability": "view",
      "type": "function"
    },
    {
      "inputs": [],
      "name": "rate",
      "outputs": [
        {
          "internalType": "uint256",
          "name": "",
          "type": "uint256"
        }
      ],
      "stateMutability": "view",
      "type": "function"
    },
    {
      "inputs": [
        {
          "internalType": "uint256",
          "name": "amountIn",
          "type": "uint256"
        }
      ],
      "name": "swapExactTokensForTokens",
      "outputs": [
        {
          "internalType": "uint256",
          "name": "amountOut",
          "type": "uint256"
        }
      ],
      "stateMutability": "nonpayable",
      "type": "function"
    },
    {
      "inputs": [],
      "name": "usdtAddress",
      "outputs": [
        {
          "internalType": "address",
          "name": "",
          "type": "address"
        }
      ],
      "stateMutability": "view",
      "type": "function"
    }
  ],
  "bytecode": "0x6080604052600360025534801561001557600080fd5b506040516103bc3803806103bc83398101604081905261003491610081565b600080546001600160a01b039384166001600160a01b031991821617909155600180549290931691161790556100b4565b80516001600160a01b038116811461007c57600080fd5b919050565b6000806040838503121561009457600080fd5b61009d83610065565b91506100ab60208401610065565b90509250929050565b6102f9806100c36000396000f3fe608060405234801561001057600080fd5b506004361061004c5760003560e01c80632c4e722e146100515780638f80e0991461006d5780639ab4a44514610080578063dd00182b146100ab575b600080fd5b61005a60025481565b6040519081526020015b60405180910390f35b61005a61007b366004610256565b6100be565b600054610093906001600160a01b031681565b6040516001600160a01b039091168152602001610064565b600154610093906001600160a01b031681565b600080546001546040516323b872dd60e01b8152336004820152306024820152604481018590526001600160a01b03928316929091169082906323b872dd906064016020604051808303816000875af115801561011f573d6000803e3d6000fd5b505050506040513d601f19601f82011682018060405250810190610143919061026f565b61018b5760405162461bcd60e51b81526020600482015260146024820152731554d115081d1c985b9cd9995c8819985a5b195960621b60448201526064015b60405180910390fd5b6002546101989085610298565b60405163a9059cbb60e01b8152336004820152602481018290529093506001600160a01b0382169063a9059cbb906044016020604051808303816000875af11580156101e8573d6000803e3d6000fd5b505050506040513d601f19601f8201168201806040525081019061020c919061026f565b61024f5760405162461bcd60e51b81526020600482015260146024820152731113d1d1481d1c985b9cd9995c8819985a5b195960621b6044820152606401610182565b5050919050565b60006020828403121561026857600080fd5b5035919050565b60006020828403121561028157600080fd5b8151801515811461029157600080fd5b9392505050565b80820281158282048414176102bd57634e487b7160e01b600052601160045260246000fd5b9291505056fea2646970667358221220be1f1677890ed94c6cf6a1004fc7cafa56347511504661e416d48565d59f6df364736f6c63430008140033",
  "linkReferences": {},
  "deployedLinkReferences": {}
}