{
  "_format": "hh-sol-artifact-1",
  "contractName": "RewardDistribution",
  "sourceName": "contracts/RewardDistribution.sol",
  "abi": [
    {
      "inputs": [
        {
          "internalType": "address",
          "name": "_usdt",
          "type": "address"
        },
        {
          "internalType": "address",
          "name": "_doge",
          "type": "address"
        },
        {
          "internalType": "address",
          "name": "_pancakeRouter",
          "type": "address"
        }
      ],
      "stateMutability": "nonpayable",
      "type": "constructor"
    },
    {
      "anonymous": false,
      "inputs": [
        {
          "indexed": false,
          "internalType": "uint256",
          "name": "level",
          "type": "uint256"
        },
        {
          "indexed": false,
          "internalType": "uint256",
          "name": "requiredUSDT",
          "type": "uint256"
        },
        {
          "indexed": false,
          "internalType": "uint256",
          "name": "rewardPercent",
          "type": "uint256"
        }
      ],
      "name": "CommunityLevelUpdated",
      "type": "event"
    },
    {
      "anonymous": false,
      "inputs": [
        {
          "indexed": true,
          "internalType": "address",
          "name": "user",
          "type": "address"
        },
        {
          "indexed": false,
          "internalType": "uint256",
          "name": "amount",
          "type": "uint256"
        }
      ],
      "name": "PackagePurchased",
      "type": "event"
    },
    {
      "anonymous": false,
      "inputs": [
        {
          "indexed": false,
          "internalType": "address",
          "name": "newRouter",
          "type": "address"
        }
      ],
      "name": "PancakeRouterUpdated",
      "type": "event"
    },
    {
      "anonymous": false,
      "inputs": [
        {
          "indexed": true,
          "internalType": "address",
          "name": "referrer",
          "type": "address"
        },
        {
          "indexed": true,
          "internalType": "address",
          "name": "referee",
          "type": "address"
        },
        {
          "indexed": false,
          "internalType": "uint256",
          "name": "amount",
          "type": "uint256"
        },
        {
          "indexed": false,
          "internalType": "bool",
          "name": "direct",
          "type": "bool"
        }
      ],
      "name": "ReferralReward",
      "type": "event"
    },
    {
      "anonymous": false,
      "inputs": [
        {
          "indexed": true,
          "internalType": "address",
          "name": "user",
          "type": "address"
        },
        {
          "indexed": false,
          "internalType": "uint256",
          "name": "usdtAmount",
          "type": "uint256"
        },
        {
          "indexed": false,
          "internalType": "uint256",
          "name": "dogeAmount",
          "type": "uint256"
        }
      ],
      "name": "Release",
      "type": "event"
    },
    {
      "anonymous": false,
      "inputs": [
        {
          "indexed": false,
          "internalType": "uint256",
          "name": "usdtAmount",
          "type": "uint256"
        },
        {
          "indexed": false,
          "internalType": "uint256",
          "name": "dogeAmount",
          "type": "uint256"
        }
      ],
      "name": "SwapExecuted",
      "type": "event"
    },
    {
      "anonymous": false,
      "inputs": [
        {
          "indexed": true,
          "internalType": "address",
          "name": "user",
          "type": "address"
        },
        {
          "indexed": false,
          "internalType": "uint256",
          "name": "amount",
          "type": "uint256"
        }
      ],
      "name": "TeamRewardPaid",
      "type": "event"
    },
    {
      "anonymous": false,
      "inputs": [
        {
          "indexed": true,
          "internalType": "address",
          "name": "user",
          "type": "address"
        },
        {
          "indexed": true,
          "internalType": "address",
          "name": "referrer",
          "type": "address"
        }
      ],
      "name": "UserRegistered",
      "type": "event"
    },
    {
      "anonymous": false,
      "inputs": [
        {
          "indexed": true,
          "internalType": "address",
          "name": "token",
          "type": "address"
        },
        {
          "indexed": false,
          "internalType": "uint256",
          "name": "amount",
          "type": "uint256"
        }
      ],
      "name": "Withdrawn",
      "type": "event"
    },
    {
      "inputs": [
        {
          "internalType": "uint256",
          "name": "usdtAmount",
          "type": "uint256"
        }
      ],
      "name": "_swapUSDTToDOGE",
      "outputs": [
        {
          "internalType": "uint256",
          "name": "",
          "type": "uint256"
        }
      ],
      "stateMutability": "nonpayable",
      "type": "function"
    },
    {
      "inputs": [],
      "name": "communityLevel1RewardPercent",
      "outputs": [
        {
          "internalType": "uint256",
          "name": "",
          "type": "uint256"
        }
      ],
      "stateMutability": "view",
      "type": "function"
    },
    {
      "inputs": [],
      "name": "communityLevel2RewardPercent",
      "outputs": [
        {
          "internalType": "uint256",
          "name": "",
          "type": "uint256"
        }
      ],
      "stateMutability": "view",
      "type": "function"
    },
    {
      "inputs": [],
      "name": "communityLevel3RewardPercent",
      "outputs": [
        {
          "internalType": "uint256",
          "name": "",
          "type": "uint256"
        }
      ],
      "stateMutability": "view",
      "type": "function"
    },
    {
      "inputs": [],
      "name": "doge",
      "outputs": [
        {
          "internalType": "address",
          "name": "",
          "type": "address"
        }
      ],
      "stateMutability": "view",
      "type": "function"
    },
    {
      "inputs": [],
      "name": "owner",
      "outputs": [
        {
          "internalType": "address",
          "name": "",
          "type": "address"
        }
      ],
      "stateMutability": "view",
      "type": "function"
    },
    {
      "inputs": [],
      "name": "pancakeRouter",
      "outputs": [
        {
          "internalType": "contract IRouter",
          "name": "",
          "type": "address"
        }
      ],
      "stateMutability": "view",
      "type": "function"
    },
    {
      "inputs": [
        {
          "internalType": "address",
          "name": "_referrer",
          "type": "address"
        }
      ],
      "name": "purchasePackage",
      "outputs": [],
      "stateMutability": "nonpayable",
      "type": "function"
    },
    {
      "inputs": [
        {
          "internalType": "address",
          "name": "",
          "type": "address"
        }
      ],
      "name": "referrers",
      "outputs": [
        {
          "internalType": "address",
          "name": "",
          "type": "address"
        }
      ],
      "stateMutability": "view",
      "type": "function"
    },
    {
      "inputs": [
        {
          "internalType": "address",
          "name": "_referrer",
          "type": "address"
        }
      ],
      "name": "registerUser",
      "outputs": [],
      "stateMutability": "nonpayable",
      "type": "function"
    },
    {
      "inputs": [],
      "name": "releaseDOGE",
      "outputs": [],
      "stateMutability": "nonpayable",
      "type": "function"
    },
    {
      "inputs": [
        {
          "internalType": "uint256",
          "name": "level",
          "type": "uint256"
        },
        {
          "internalType": "uint256",
          "name": "requiredUSDT",
          "type": "uint256"
        },
        {
          "internalType": "uint256",
          "name": "rewardPercent",
          "type": "uint256"
        }
      ],
      "name": "setCommunityLevel",
      "outputs": [],
      "stateMutability": "nonpayable",
      "type": "function"
    },
    {
      "inputs": [
        {
          "internalType": "address",
          "name": "_pancakeRouter",
          "type": "address"
        }
      ],
      "name": "setPancakeRouter",
      "outputs": [],
      "stateMutability": "nonpayable",
      "type": "function"
    },
    {
      "inputs": [],
      "name": "usdt",
      "outputs": [
        {
          "internalType": "address",
          "name": "",
          "type": "address"
        }
      ],
      "stateMutability": "view",
      "type": "function"
    },
    {
      "inputs": [
        {
          "internalType": "address",
          "name": "",
          "type": "address"
        }
      ],
      "name": "userBalance",
      "outputs": [
        {
          "internalType": "uint256",
          "name": "",
          "type": "uint256"
        }
      ],
      "stateMutability": "view",
      "type": "function"
    },
    {
      "inputs": [
        {
          "internalType": "address",
          "name": "",
          "type": "address"
        }
      ],
      "name": "userLevel",
      "outputs": [
        {
          "internalType": "uint256",
          "name": "",
          "type": "uint256"
        }
      ],
      "stateMutability": "view",
      "type": "function"
    },
    {
      "inputs": [
        {
          "internalType": "address",
          "name": "_token",
          "type": "address"
        },
        {
          "internalType": "uint256",
          "name": "_amount",
          "type": "uint256"
        }
      ],
      "name": "withdrawToken",
      "outputs": [],
      "stateMutability": "nonpayable",
      "type": "function"
    }
  ],
  "bytecode": "0x60806040526005600455600a600555600f60065534801561001f57600080fd5b50604051610f6c380380610f6c83398101604081905261003e916100a7565b600080546001600160a01b03199081163317909155600180546001600160a01b039586169083161790556002805493851693821693909317909255600380549190931691161790556100ea565b80516001600160a01b03811681146100a257600080fd5b919050565b6000806000606084860312156100bc57600080fd5b6100c58461008b565b92506100d36020850161008b565b91506100e16040850161008b565b90509250925092565b610e73806100f96000396000f3fe608060405234801561001057600080fd5b506004361061010b5760003560e01c806376dce785116100a2578063c21ebd0711610071578063c21ebd071461023c578063ca2540f91461024f578063d11d86a914610262578063f8316c901461026b578063ffff6b3e1461027e57600080fd5b806376dce78514610205578063847b1dc41461020d5780638da5cb5b146102165780639e281a981461022957600080fd5b8063280e31cc116100de578063280e31cc1461017e5780632f48ab7d1461019e57806334809ee7146101c95780634a3b68cc146101dc57600080fd5b80630103c92b146101105780630d55b205146101435780631f420cb9146101565780632199d5cd1461016b575b600080fd5b61013061011e366004610b42565b60086020526000908152604090205481565b6040519081526020015b60405180910390f35b610130610151366004610b64565b610287565b610169610164366004610b42565b610411565b005b610169610179366004610b42565b6104ec565b61013061018c366004610b42565b60096020526000908152604090205481565b6001546101b1906001600160a01b031681565b6040516001600160a01b03909116815260200161013a565b6002546101b1906001600160a01b031681565b6101b16101ea366004610b42565b6007602052600090815260409020546001600160a01b031681565b6101696105eb565b61013060065481565b6000546101b1906001600160a01b031681565b610169610237366004610b7d565b6106f7565b6003546101b1906001600160a01b031681565b61016961025d366004610ba7565b61081d565b61013060045481565b610169610279366004610b42565b6108bf565b61013060055481565b60408051600280825260608201835260009283929190602083019080368337505060015482519293506001600160a01b0316918391506000906102cc576102cc610be9565b6001600160a01b0392831660209182029290920101526002548251911690829060019081106102fd576102fd610be9565b6001600160a01b0392831660209182029290920101526003546040516338ed173960e01b815260019260009216906338ed1739906103479088908690889030904290600401610bff565b6000604051808303816000875af1158015610366573d6000803e3d6000fd5b505050506040513d6000823e601f3d908101601f1916820160405261038e9190810190610c70565b90507f4f73e5828387c436ef01a51b03853873e76d7a5551556837d452cbeb6f285cb585826001815181106103c5576103c5610be9565b60200260200101516040516103e4929190918252602082015260400190565b60405180910390a1806001815181106103ff576103ff610be9565b60200260200101519350505050919050565b600a8054908190600061042383610d44565b9091555050801561044f5760405162461bcd60e51b815260040161044690610d5d565b60405180910390fd5b633b9aca00600061045f82610287565b33600090815260086020526040812080549293508392909190610483908490610d8a565b909155505060405182815233907f186895c810586c5134a2994019549e2bce20e56a367fa9f644485bf01b21d5d39060200160405180910390a26104c7848361093d565b6104d13383610a98565b5050600a80549060006104e383610da3565b91905055505050565b600a805490819060006104fe83610d44565b909155505080156105215760405162461bcd60e51b815260040161044690610d5d565b336000908152600760205260409020546001600160a01b0316156105875760405162461bcd60e51b815260206004820152601760248201527f5573657220616c726561647920726567697374657265640000000000000000006044820152606401610446565b3360008181526007602052604080822080546001600160a01b0319166001600160a01b03871690811790915590519092917f2138b9314634f9fdd5e49bee3eaf17ca557b6637524d0db759711c3bfcd3d85091a3600a80549060006104e383610da3565b600a805490819060006105fd83610d44565b909155505080156106205760405162461bcd60e51b815260040161044690610d5d565b336000908152600860205260409020546106725760405162461bcd60e51b8152602060048201526013602482015272155cd95c88191bd95cc81b9bdd08195e1a5cdd606a1b6044820152606401610446565b336000908152600860205260408120549061068c82610287565b33600081815260086020908152604080832092909255815186815290810184905292935090917f2c57dec1db0095a6b800c2698d5bbceef2c180c6ac43429769a719658983f677910160405180910390a25050600a80549060006106ef83610da3565b919050555050565b6000546001600160a01b031633146107215760405162461bcd60e51b815260040161044690610dba565b60005460405163a9059cbb60e01b81526001600160a01b039182166004820152602481018390529083169063a9059cbb906044016020604051808303816000875af1158015610774573d6000803e3d6000fd5b505050506040513d601f19601f820116820180604052508101906107989190610de2565b6107d65760405162461bcd60e51b815260206004820152600f60248201526e151c985b9cd9995c8819985a5b1959608a1b6044820152606401610446565b816001600160a01b03167f7084f5476618d8e60b11ef0d7d3f06914655adb8793e28ff7f018d4c76d505d58260405161081191815260200190565b60405180910390a25050565b6000546001600160a01b031633146108475760405162461bcd60e51b815260040161044690610dba565b82600103610859576004819055610879565b8260020361086b576005819055610879565b826003036108795760068190555b60408051848152602081018490529081018290527fc4a2169bf72e203b34eaea3fe6954c92ecd3b55741d8f6eb8031a2f7e283e3f59060600160405180910390a1505050565b6000546001600160a01b031633146108e95760405162461bcd60e51b815260040161044690610dba565b600380546001600160a01b0319166001600160a01b0383169081179091556040519081527f7cd91bb102d5b88808255aa4b0877f151c1c4d2e61deef286b983f293eea60ab9060200160405180910390a150565b6001600160a01b03821615610a94576000606461095b836005610e04565b6109659190610e1b565b6001600160a01b038416600090815260086020526040812080549293508392909190610992908490610d8a565b9091555050604080518281526001602082015233916001600160a01b038616917fdafe43814723ebfae33976da0508be80144bb89e46846d073002730d96e69227910160405180910390a36001600160a01b03808416600090815260076020526040902054168015610a915760006064610a0d856003610e04565b610a179190610e1b565b6001600160a01b038316600090815260086020526040812080549293508392909190610a44908490610d8a565b9091555050604080518281526000602082015233916001600160a01b038516917fdafe43814723ebfae33976da0508be80144bb89e46846d073002730d96e69227910160405180910390a3505b50505b5050565b60006064610aa783600a610e04565b610ab19190610e1b565b6001600160a01b038416600090815260086020526040812080549293508392909190610ade908490610d8a565b90915550506040518181526001600160a01b038416907f783eeff930916a36777f27a7fea6add1c0393d392960bafc7ec85712cdb378029060200160405180910390a2505050565b80356001600160a01b0381168114610b3d57600080fd5b919050565b600060208284031215610b5457600080fd5b610b5d82610b26565b9392505050565b600060208284031215610b7657600080fd5b5035919050565b60008060408385031215610b9057600080fd5b610b9983610b26565b946020939093013593505050565b600080600060608486031215610bbc57600080fd5b505081359360208301359350604090920135919050565b634e487b7160e01b600052604160045260246000fd5b634e487b7160e01b600052603260045260246000fd5b600060a082018783526020878185015260a0604085015281875180845260c086019150828901935060005b81811015610c4f5784516001600160a01b031683529383019391830191600101610c2a565b50506001600160a01b03969096166060850152505050608001529392505050565b60006020808385031215610c8357600080fd5b825167ffffffffffffffff80821115610c9b57600080fd5b818501915085601f830112610caf57600080fd5b815181811115610cc157610cc1610bd3565b8060051b604051601f19603f83011681018181108582111715610ce657610ce6610bd3565b604052918252848201925083810185019188831115610d0457600080fd5b938501935b82851015610d2257845184529385019392850192610d09565b98975050505050505050565b634e487b7160e01b600052601160045260246000fd5b600060018201610d5657610d56610d2e565b5060010190565b6020808252601390820152721499595b9d1c985b98de4819195d1958dd1959606a1b604082015260600190565b80820180821115610d9d57610d9d610d2e565b92915050565b600081610db257610db2610d2e565b506000190190565b6020808252600e908201526d139bdd08185d5d1a1bdc9a5e995960921b604082015260600190565b600060208284031215610df457600080fd5b81518015158114610b5d57600080fd5b8082028115828204841417610d9d57610d9d610d2e565b600082610e3857634e487b7160e01b600052601260045260246000fd5b50049056fea2646970667358221220e297752fefbf9bf7bd1b5355f29803fdae7de9152b15287b28a88cb4c14b372d64736f6c63430008140033",
  "linkReferences": {},
  "deployedLinkReferences": {}
}