{"contracts/RewardDistribution.sol":{"RewardDistribution":{"abi":[{"inputs":[{"internalType":"address","name":"_usdt","type":"address"},{"internalType":"address","name":"_doge","type":"address"},{"internalType":"address","name":"_pancakeRouter","type":"address"}],"stateMutability":"nonpayable","type":"constructor"},{"anonymous":false,"inputs":[{"indexed":false,"internalType":"uint256","name":"level","type":"uint256"},{"indexed":false,"internalType":"uint256","name":"requiredUSDT","type":"uint256"},{"indexed":false,"internalType":"uint256","name":"rewardPercent","type":"uint256"}],"name":"CommunityLevelUpdated","type":"event"},{"anonymous":false,"inputs":[{"indexed":true,"internalType":"address","name":"user","type":"address"},{"indexed":false,"internalType":"uint256","name":"amount","type":"uint256"}],"name":"PackagePurchased","type":"event"},{"anonymous":false,"inputs":[{"indexed":false,"internalType":"address","name":"newRouter","type":"address"}],"name":"PancakeRouterUpdated","type":"event"},{"anonymous":false,"inputs":[{"indexed":true,"internalType":"address","name":"referrer","type":"address"},{"indexed":true,"internalType":"address","name":"referee","type":"address"},{"indexed":false,"internalType":"uint256","name":"amount","type":"uint256"},{"indexed":false,"internalType":"bool","name":"direct","type":"bool"}],"name":"ReferralReward","type":"event"},{"anonymous":false,"inputs":[{"indexed":true,"internalType":"address","name":"user","type":"address"},{"indexed":false,"internalType":"uint256","name":"usdtAmount","type":"uint256"},{"indexed":false,"internalType":"uint256","name":"dogeAmount","type":"uint256"}],"name":"Release","type":"event"},{"anonymous":false,"inputs":[{"indexed":false,"internalType":"uint256","name":"usdtAmount","type":"uint256"},{"indexed":false,"internalType":"uint256","name":"dogeAmount","type":"uint256"}],"name":"SwapExecuted","type":"event"},{"anonymous":false,"inputs":[{"indexed":true,"internalType":"address","name":"user","type":"address"},{"indexed":false,"internalType":"uint256","name":"amount","type":"uint256"}],"name":"TeamRewardPaid","type":"event"},{"anonymous":false,"inputs":[{"indexed":true,"internalType":"address","name":"user","type":"address"},{"indexed":true,"internalType":"address","name":"referrer","type":"address"}],"name":"UserRegistered","type":"event"},{"anonymous":false,"inputs":[{"indexed":true,"internalType":"address","name":"token","type":"address"},{"indexed":false,"internalType":"uint256","name":"amount","type":"uint256"}],"name":"Withdrawn","type":"event"},{"inputs":[{"internalType":"uint256","name":"usdtAmount","type":"uint256"}],"name":"_swapUSDTToDOGE","outputs":[{"internalType":"uint256","name":"","type":"uint256"}],"stateMutability":"nonpayable","type":"function"},{"inputs":[],"name":"communityLevel1RewardPercent","outputs":[{"internalType":"uint256","name":"","type":"uint256"}],"stateMutability":"view","type":"function"},{"inputs":[],"name":"communityLevel2RewardPercent","outputs":[{"internalType":"uint256","name":"","type":"uint256"}],"stateMutability":"view","type":"function"},{"inputs":[],"name":"communityLevel3RewardPercent","outputs":[{"internalType":"uint256","name":"","type":"uint256"}],"stateMutability":"view","type":"function"},{"inputs":[],"name":"doge","outputs":[{"internalType":"address","name":"","type":"address"}],"stateMutability":"view","type":"function"},{"inputs":[],"name":"owner","outputs":[{"internalType":"address","name":"","type":"address"}],"stateMutability":"view","type":"function"},{"inputs":[],"name":"pancakeRouter","outputs":[{"internalType":"contract IRouter","name":"","type":"address"}],"stateMutability":"view","type":"function"},{"inputs":[{"internalType":"address","name":"_referrer","type":"address"}],"name":"purchasePackage","outputs":[],"stateMutability":"nonpayable","type":"function"},{"inputs":[{"internalType":"address","name":"","type":"address"}],"name":"referrers","outputs":[{"internalType":"address","name":"","type":"address"}],"stateMutability":"view","type":"function"},{"inputs":[{"internalType":"address","name":"_referrer","type":"address"}],"name":"registerUser","outputs":[],"stateMutability":"nonpayable","type":"function"},{"inputs":[],"name":"releaseDOGE","outputs":[],"stateMutability":"nonpayable","type":"function"},{"inputs":[{"internalType":"uint256","name":"level","type":"uint256"},{"internalType":"uint256","name":"requiredUSDT","type":"uint256"},{"internalType":"uint256","name":"rewardPercent","type":"uint256"}],"name":"setCommunityLevel","outputs":[],"stateMutability":"nonpayable","type":"function"},{"inputs":[{"internalType":"address","name":"_pancakeRouter","type":"address"}],"name":"setPancakeRouter","outputs":[],"stateMutability":"nonpayable","type":"function"},{"inputs":[],"name":"usdt","outputs":[{"internalType":"address","name":"","type":"address"}],"stateMutability":"view","type":"function"},{"inputs":[{"internalType":"address","name":"","type":"address"}],"name":"userBalance","outputs":[{"internalType":"uint256","name":"","type":"uint256"}],"stateMutability":"view","type":"function"},{"inputs":[{"internalType":"address","name":"","type":"address"}],"name":"userLevel","outputs":[{"internalType":"uint256","name":"","type":"uint256"}],"stateMutability":"view","type":"function"},{"inputs":[{"internalType":"address","name":"_token","type":"address"},{"internalType":"uint256","name":"_amount","type":"uint256"}],"name":"withdrawToken","outputs":[],"stateMutability":"nonpayable","type":"function"}],"devdoc":{"kind":"dev","methods":{},"version":1},"evm":{"bytecode":{"linkReferences":{},"object":"60806040526005600455600a600555600f60065534801561001f57600080fd5b50604051610f6c380380610f6c83398101604081905261003e916100a7565b600080546001600160a01b03199081163317909155600180546001600160a01b039586169083161790556002805493851693821693909317909255600380549190931691161790556100ea565b80516001600160a01b03811681146100a257600080fd5b919050565b6000806000606084860312156100bc57600080fd5b6100c58461008b565b92506100d36020850161008b565b91506100e16040850161008b565b90509250925092565b610e73806100f96000396000f3fe608060405234801561001057600080fd5b506004361061010b5760003560e01c806376dce785116100a2578063c21ebd0711610071578063c21ebd071461023c578063ca2540f91461024f578063d11d86a914610262578063f8316c901461026b578063ffff6b3e1461027e57600080fd5b806376dce78514610205578063847b1dc41461020d5780638da5cb5b146102165780639e281a981461022957600080fd5b8063280e31cc116100de578063280e31cc1461017e5780632f48ab7d1461019e57806334809ee7146101c95780634a3b68cc146101dc57600080fd5b80630103c92b146101105780630d55b205146101435780631f420cb9146101565780632199d5cd1461016b575b600080fd5b61013061011e366004610b42565b60086020526000908152604090205481565b6040519081526020015b60405180910390f35b610130610151366004610b64565b610287565b610169610164366004610b42565b610411565b005b610169610179366004610b42565b6104ec565b61013061018c366004610b42565b60096020526000908152604090205481565b6001546101b1906001600160a01b031681565b6040516001600160a01b03909116815260200161013a565b6002546101b1906001600160a01b031681565b6101b16101ea366004610b42565b6007602052600090815260409020546001600160a01b031681565b6101696105eb565b61013060065481565b6000546101b1906001600160a01b031681565b610169610237366004610b7d565b6106f7565b6003546101b1906001600160a01b031681565b61016961025d366004610ba7565b61081d565b61013060045481565b610169610279366004610b42565b6108bf565b61013060055481565b60408051600280825260608201835260009283929190602083019080368337505060015482519293506001600160a01b0316918391506000906102cc576102cc610be9565b6001600160a01b0392831660209182029290920101526002548251911690829060019081106102fd576102fd610be9565b6001600160a01b0392831660209182029290920101526003546040516338ed173960e01b815260019260009216906338ed1739906103479088908690889030904290600401610bff565b6000604051808303816000875af1158015610366573d6000803e3d6000fd5b505050506040513d6000823e601f3d908101601f1916820160405261038e9190810190610c70565b90507f4f73e5828387c436ef01a51b03853873e76d7a5551556837d452cbeb6f285cb585826001815181106103c5576103c5610be9565b60200260200101516040516103e4929190918252602082015260400190565b60405180910390a1806001815181106103ff576103ff610be9565b60200260200101519350505050919050565b600a8054908190600061042383610d44565b9091555050801561044f5760405162461bcd60e51b815260040161044690610d5d565b60405180910390fd5b633b9aca00600061045f82610287565b33600090815260086020526040812080549293508392909190610483908490610d8a565b909155505060405182815233907f186895c810586c5134a2994019549e2bce20e56a367fa9f644485bf01b21d5d39060200160405180910390a26104c7848361093d565b6104d13383610a98565b5050600a80549060006104e383610da3565b91905055505050565b600a805490819060006104fe83610d44565b909155505080156105215760405162461bcd60e51b815260040161044690610d5d565b336000908152600760205260409020546001600160a01b0316156105875760405162461bcd60e51b815260206004820152601760248201527f5573657220616c726561647920726567697374657265640000000000000000006044820152606401610446565b3360008181526007602052604080822080546001600160a01b0319166001600160a01b03871690811790915590519092917f2138b9314634f9fdd5e49bee3eaf17ca557b6637524d0db759711c3bfcd3d85091a3600a80549060006104e383610da3565b600a805490819060006105fd83610d44565b909155505080156106205760405162461bcd60e51b815260040161044690610d5d565b336000908152600860205260409020546106725760405162461bcd60e51b8152602060048201526013602482015272155cd95c88191bd95cc81b9bdd08195e1a5cdd606a1b6044820152606401610446565b336000908152600860205260408120549061068c82610287565b33600081815260086020908152604080832092909255815186815290810184905292935090917f2c57dec1db0095a6b800c2698d5bbceef2c180c6ac43429769a719658983f677910160405180910390a25050600a80549060006106ef83610da3565b919050555050565b6000546001600160a01b031633146107215760405162461bcd60e51b815260040161044690610dba565b60005460405163a9059cbb60e01b81526001600160a01b039182166004820152602481018390529083169063a9059cbb906044016020604051808303816000875af1158015610774573d6000803e3d6000fd5b505050506040513d601f19601f820116820180604052508101906107989190610de2565b6107d65760405162461bcd60e51b815260206004820152600f60248201526e151c985b9cd9995c8819985a5b1959608a1b6044820152606401610446565b816001600160a01b03167f7084f5476618d8e60b11ef0d7d3f06914655adb8793e28ff7f018d4c76d505d58260405161081191815260200190565b60405180910390a25050565b6000546001600160a01b031633146108475760405162461bcd60e51b815260040161044690610dba565b82600103610859576004819055610879565b8260020361086b576005819055610879565b826003036108795760068190555b60408051848152602081018490529081018290527fc4a2169bf72e203b34eaea3fe6954c92ecd3b55741d8f6eb8031a2f7e283e3f59060600160405180910390a1505050565b6000546001600160a01b031633146108e95760405162461bcd60e51b815260040161044690610dba565b600380546001600160a01b0319166001600160a01b0383169081179091556040519081527f7cd91bb102d5b88808255aa4b0877f151c1c4d2e61deef286b983f293eea60ab9060200160405180910390a150565b6001600160a01b03821615610a94576000606461095b836005610e04565b6109659190610e1b565b6001600160a01b038416600090815260086020526040812080549293508392909190610992908490610d8a565b9091555050604080518281526001602082015233916001600160a01b038616917fdafe43814723ebfae33976da0508be80144bb89e46846d073002730d96e69227910160405180910390a36001600160a01b03808416600090815260076020526040902054168015610a915760006064610a0d856003610e04565b610a179190610e1b565b6001600160a01b038316600090815260086020526040812080549293508392909190610a44908490610d8a565b9091555050604080518281526000602082015233916001600160a01b038516917fdafe43814723ebfae33976da0508be80144bb89e46846d073002730d96e69227910160405180910390a3505b50505b5050565b60006064610aa783600a610e04565b610ab19190610e1b565b6001600160a01b038416600090815260086020526040812080549293508392909190610ade908490610d8a565b90915550506040518181526001600160a01b038416907f783eeff930916a36777f27a7fea6add1c0393d392960bafc7ec85712cdb378029060200160405180910390a2505050565b80356001600160a01b0381168114610b3d57600080fd5b919050565b600060208284031215610b5457600080fd5b610b5d82610b26565b9392505050565b600060208284031215610b7657600080fd5b5035919050565b60008060408385031215610b9057600080fd5b610b9983610b26565b946020939093013593505050565b600080600060608486031215610bbc57600080fd5b505081359360208301359350604090920135919050565b634e487b7160e01b600052604160045260246000fd5b634e487b7160e01b600052603260045260246000fd5b600060a082018783526020878185015260a0604085015281875180845260c086019150828901935060005b81811015610c4f5784516001600160a01b031683529383019391830191600101610c2a565b50506001600160a01b03969096166060850152505050608001529392505050565b60006020808385031215610c8357600080fd5b825167ffffffffffffffff80821115610c9b57600080fd5b818501915085601f830112610caf57600080fd5b815181811115610cc157610cc1610bd3565b8060051b604051601f19603f83011681018181108582111715610ce657610ce6610bd3565b604052918252848201925083810185019188831115610d0457600080fd5b938501935b82851015610d2257845184529385019392850192610d09565b98975050505050505050565b634e487b7160e01b600052601160045260246000fd5b600060018201610d5657610d56610d2e565b5060010190565b6020808252601390820152721499595b9d1c985b98de4819195d1958dd1959606a1b604082015260600190565b80820180821115610d9d57610d9d610d2e565b92915050565b600081610db257610db2610d2e565b506000190190565b6020808252600e908201526d139bdd08185d5d1a1bdc9a5e995960921b604082015260600190565b600060208284031215610df457600080fd5b81518015158114610b5d57600080fd5b8082028115828204841417610d9d57610d9d610d2e565b600082610e3857634e487b7160e01b600052601260045260246000fd5b50049056fea2646970667358221220e297752fefbf9bf7bd1b5355f29803fdae7de9152b15287b28a88cb4c14b372d64736f6c63430008140033","opcodes":"PUSH1 0x80 PUSH1 0x40 MSTORE PUSH1 0x5 PUSH1 0x4 SSTORE PUSH1 0xA PUSH1 0x5 SSTORE PUSH1 0xF PUSH1 0x6 SSTORE CALLVALUE DUP1 ISZERO PUSH2 0x1F JUMPI PUSH1 0x0 DUP1 REVERT JUMPDEST POP PUSH1 0x40 MLOAD PUSH2 0xF6C CODESIZE SUB DUP1 PUSH2 0xF6C DUP4 CODECOPY DUP2 ADD PUSH1 0x40 DUP2 SWAP1 MSTORE PUSH2 0x3E SWAP2 PUSH2 0xA7 JUMP JUMPDEST PUSH1 0x0 DUP1 SLOAD PUSH1 0x1 PUSH1 0x1 PUSH1 0xA0 SHL SUB NOT SWAP1 DUP2 AND CALLER OR SWAP1 SWAP2 SSTORE PUSH1 0x1 DUP1 SLOAD PUSH1 0x1 PUSH1 0x1 PUSH1 0xA0 SHL SUB SWAP6 DUP7 AND SWAP1 DUP4 AND OR SWAP1 SSTORE PUSH1 0x2 DUP1 SLOAD SWAP4 DUP6 AND SWAP4 DUP3 AND SWAP4 SWAP1 SWAP4 OR SWAP1 SWAP3 SSTORE PUSH1 0x3 DUP1 SLOAD SWAP2 SWAP1 SWAP4 AND SWAP2 AND OR SWAP1 SSTORE PUSH2 0xEA JUMP JUMPDEST DUP1 MLOAD PUSH1 0x1 PUSH1 0x1 PUSH1 0xA0 SHL SUB DUP2 AND DUP2 EQ PUSH2 0xA2 JUMPI PUSH1 0x0 DUP1 REVERT JUMPDEST SWAP2 SWAP1 POP JUMP JUMPDEST PUSH1 0x0 DUP1 PUSH1 0x0 PUSH1 0x60 DUP5 DUP7 SUB SLT ISZERO PUSH2 0xBC JUMPI PUSH1 0x0 DUP1 REVERT JUMPDEST PUSH2 0xC5 DUP5 PUSH2 0x8B JUMP JUMPDEST SWAP3 POP PUSH2 0xD3 PUSH1 0x20 DUP6 ADD PUSH2 0x8B JUMP JUMPDEST SWAP2 POP PUSH2 0xE1 PUSH1 0x40 DUP6 ADD PUSH2 0x8B JUMP JUMPDEST SWAP1 POP SWAP3 POP SWAP3 POP SWAP3 JUMP JUMPDEST PUSH2 0xE73 DUP1 PUSH2 0xF9 PUSH1 0x0 CODECOPY PUSH1 0x0 RETURN INVALID PUSH1 0x80 PUSH1 0x40 MSTORE CALLVALUE DUP1 ISZERO PUSH2 0x10 JUMPI PUSH1 0x0 DUP1 REVERT JUMPDEST POP PUSH1 0x4 CALLDATASIZE LT PUSH2 0x10B JUMPI PUSH1 0x0 CALLDATALOAD PUSH1 0xE0 SHR DUP1 PUSH4 0x76DCE785 GT PUSH2 0xA2 JUMPI DUP1 PUSH4 0xC21EBD07 GT PUSH2 0x71 JUMPI DUP1 PUSH4 0xC21EBD07 EQ PUSH2 0x23C JUMPI DUP1 PUSH4 0xCA2540F9 EQ PUSH2 0x24F JUMPI DUP1 PUSH4 0xD11D86A9 EQ PUSH2 0x262 JUMPI DUP1 PUSH4 0xF8316C90 EQ PUSH2 0x26B JUMPI DUP1 PUSH4 0xFFFF6B3E EQ PUSH2 0x27E JUMPI PUSH1 0x0 DUP1 REVERT JUMPDEST DUP1 PUSH4 0x76DCE785 EQ PUSH2 0x205 JUMPI DUP1 PUSH4 0x847B1DC4 EQ PUSH2 0x20D JUMPI DUP1 PUSH4 0x8DA5CB5B EQ PUSH2 0x216 JUMPI DUP1 PUSH4 0x9E281A98 EQ PUSH2 0x229 JUMPI PUSH1 0x0 DUP1 REVERT JUMPDEST DUP1 PUSH4 0x280E31CC GT PUSH2 0xDE JUMPI DUP1 PUSH4 0x280E31CC EQ PUSH2 0x17E JUMPI DUP1 PUSH4 0x2F48AB7D EQ PUSH2 0x19E JUMPI DUP1 PUSH4 0x34809EE7 EQ PUSH2 0x1C9 JUMPI DUP1 PUSH4 0x4A3B68CC EQ PUSH2 0x1DC JUMPI PUSH1 0x0 DUP1 REVERT JUMPDEST DUP1 PUSH4 0x103C92B EQ PUSH2 0x110 JUMPI DUP1 PUSH4 0xD55B205 EQ PUSH2 0x143 JUMPI DUP1 PUSH4 0x1F420CB9 EQ PUSH2 0x156 JUMPI DUP1 PUSH4 0x2199D5CD EQ PUSH2 0x16B JUMPI JUMPDEST PUSH1 0x0 DUP1 REVERT JUMPDEST PUSH2 0x130 PUSH2 0x11E CALLDATASIZE PUSH1 0x4 PUSH2 0xB42 JUMP JUMPDEST PUSH1 0x8 PUSH1 0x20 MSTORE PUSH1 0x0 SWAP1 DUP2 MSTORE PUSH1 0x40 SWAP1 KECCAK256 SLOAD DUP2 JUMP JUMPDEST PUSH1 0x40 MLOAD SWAP1 DUP2 MSTORE PUSH1 0x20 ADD JUMPDEST PUSH1 0x40 MLOAD DUP1 SWAP2 SUB SWAP1 RETURN JUMPDEST PUSH2 0x130 PUSH2 0x151 CALLDATASIZE PUSH1 0x4 PUSH2 0xB64 JUMP JUMPDEST PUSH2 0x287 JUMP JUMPDEST PUSH2 0x169 PUSH2 0x164 CALLDATASIZE PUSH1 0x4 PUSH2 0xB42 JUMP JUMPDEST PUSH2 0x411 JUMP JUMPDEST STOP JUMPDEST PUSH2 0x169 PUSH2 0x179 CALLDATASIZE PUSH1 0x4 PUSH2 0xB42 JUMP JUMPDEST PUSH2 0x4EC JUMP JUMPDEST PUSH2 0x130 PUSH2 0x18C CALLDATASIZE PUSH1 0x4 PUSH2 0xB42 JUMP JUMPDEST PUSH1 0x9 PUSH1 0x20 MSTORE PUSH1 0x0 SWAP1 DUP2 MSTORE PUSH1 0x40 SWAP1 KECCAK256 SLOAD DUP2 JUMP JUMPDEST PUSH1 0x1 SLOAD PUSH2 0x1B1 SWAP1 PUSH1 0x1 PUSH1 0x1 PUSH1 0xA0 SHL SUB AND DUP2 JUMP JUMPDEST PUSH1 0x40 MLOAD PUSH1 0x1 PUSH1 0x1 PUSH1 0xA0 SHL SUB SWAP1 SWAP2 AND DUP2 MSTORE PUSH1 0x20 ADD PUSH2 0x13A JUMP JUMPDEST PUSH1 0x2 SLOAD PUSH2 0x1B1 SWAP1 PUSH1 0x1 PUSH1 0x1 PUSH1 0xA0 SHL SUB AND DUP2 JUMP JUMPDEST PUSH2 0x1B1 PUSH2 0x1EA CALLDATASIZE PUSH1 0x4 PUSH2 0xB42 JUMP JUMPDEST PUSH1 0x7 PUSH1 0x20 MSTORE PUSH1 0x0 SWAP1 DUP2 MSTORE PUSH1 0x40 SWAP1 KECCAK256 SLOAD PUSH1 0x1 PUSH1 0x1 PUSH1 0xA0 SHL SUB AND DUP2 JUMP JUMPDEST PUSH2 0x169 PUSH2 0x5EB JUMP JUMPDEST PUSH2 0x130 PUSH1 0x6 SLOAD DUP2 JUMP JUMPDEST PUSH1 0x0 SLOAD PUSH2 0x1B1 SWAP1 PUSH1 0x1 PUSH1 0x1 PUSH1 0xA0 SHL SUB AND DUP2 JUMP JUMPDEST PUSH2 0x169 PUSH2 0x237 CALLDATASIZE PUSH1 0x4 PUSH2 0xB7D JUMP JUMPDEST PUSH2 0x6F7 JUMP JUMPDEST PUSH1 0x3 SLOAD PUSH2 0x1B1 SWAP1 PUSH1 0x1 PUSH1 0x1 PUSH1 0xA0 SHL SUB AND DUP2 JUMP JUMPDEST PUSH2 0x169 PUSH2 0x25D CALLDATASIZE PUSH1 0x4 PUSH2 0xBA7 JUMP JUMPDEST PUSH2 0x81D JUMP JUMPDEST PUSH2 0x130 PUSH1 0x4 SLOAD DUP2 JUMP JUMPDEST PUSH2 0x169 PUSH2 0x279 CALLDATASIZE PUSH1 0x4 PUSH2 0xB42 JUMP JUMPDEST PUSH2 0x8BF JUMP JUMPDEST PUSH2 0x130 PUSH1 0x5 SLOAD DUP2 JUMP JUMPDEST PUSH1 0x40 DUP1 MLOAD PUSH1 0x2 DUP1 DUP3 MSTORE PUSH1 0x60 DUP3 ADD DUP4 MSTORE PUSH1 0x0 SWAP3 DUP4 SWAP3 SWAP2 SWAP1 PUSH1 0x20 DUP4 ADD SWAP1 DUP1 CALLDATASIZE DUP4 CALLDATACOPY POP POP PUSH1 0x1 SLOAD DUP3 MLOAD SWAP3 SWAP4 POP PUSH1 0x1 PUSH1 0x1 PUSH1 0xA0 SHL SUB AND SWAP2 DUP4 SWAP2 POP PUSH1 0x0 SWAP1 PUSH2 0x2CC JUMPI PUSH2 0x2CC PUSH2 0xBE9 JUMP JUMPDEST PUSH1 0x1 PUSH1 0x1 PUSH1 0xA0 SHL SUB SWAP3 DUP4 AND PUSH1 0x20 SWAP2 DUP3 MUL SWAP3 SWAP1 SWAP3 ADD ADD MSTORE PUSH1 0x2 SLOAD DUP3 MLOAD SWAP2 AND SWAP1 DUP3 SWAP1 PUSH1 0x1 SWAP1 DUP2 LT PUSH2 0x2FD JUMPI PUSH2 0x2FD PUSH2 0xBE9 JUMP JUMPDEST PUSH1 0x1 PUSH1 0x1 PUSH1 0xA0 SHL SUB SWAP3 DUP4 AND PUSH1 0x20 SWAP2 DUP3 MUL SWAP3 SWAP1 SWAP3 ADD ADD MSTORE PUSH1 0x3 SLOAD PUSH1 0x40 MLOAD PUSH4 0x38ED1739 PUSH1 0xE0 SHL DUP2 MSTORE PUSH1 0x1 SWAP3 PUSH1 0x0 SWAP3 AND SWAP1 PUSH4 0x38ED1739 SWAP1 PUSH2 0x347 SWAP1 DUP9 SWAP1 DUP7 SWAP1 DUP9 SWAP1 ADDRESS SWAP1 TIMESTAMP SWAP1 PUSH1 0x4 ADD PUSH2 0xBFF JUMP JUMPDEST PUSH1 0x0 PUSH1 0x40 MLOAD DUP1 DUP4 SUB DUP2 PUSH1 0x0 DUP8 GAS CALL ISZERO DUP1 ISZERO PUSH2 0x366 JUMPI RETURNDATASIZE PUSH1 0x0 DUP1 RETURNDATACOPY RETURNDATASIZE PUSH1 0x0 REVERT JUMPDEST POP POP POP POP PUSH1 0x40 MLOAD RETURNDATASIZE PUSH1 0x0 DUP3 RETURNDATACOPY PUSH1 0x1F RETURNDATASIZE SWAP1 DUP2 ADD PUSH1 0x1F NOT AND DUP3 ADD PUSH1 0x40 MSTORE PUSH2 0x38E SWAP2 SWAP1 DUP2 ADD SWAP1 PUSH2 0xC70 JUMP JUMPDEST SWAP1 POP PUSH32 0x4F73E5828387C436EF01A51B03853873E76D7A5551556837D452CBEB6F285CB5 DUP6 DUP3 PUSH1 0x1 DUP2 MLOAD DUP2 LT PUSH2 0x3C5 JUMPI PUSH2 0x3C5 PUSH2 0xBE9 JUMP JUMPDEST PUSH1 0x20 MUL PUSH1 0x20 ADD ADD MLOAD PUSH1 0x40 MLOAD PUSH2 0x3E4 SWAP3 SWAP2 SWAP1 SWAP2 DUP3 MSTORE PUSH1 0x20 DUP3 ADD MSTORE PUSH1 0x40 ADD SWAP1 JUMP JUMPDEST PUSH1 0x40 MLOAD DUP1 SWAP2 SUB SWAP1 LOG1 DUP1 PUSH1 0x1 DUP2 MLOAD DUP2 LT PUSH2 0x3FF JUMPI PUSH2 0x3FF PUSH2 0xBE9 JUMP JUMPDEST PUSH1 0x20 MUL PUSH1 0x20 ADD ADD MLOAD SWAP4 POP POP POP POP SWAP2 SWAP1 POP JUMP JUMPDEST PUSH1 0xA DUP1 SLOAD SWAP1 DUP2 SWAP1 PUSH1 0x0 PUSH2 0x423 DUP4 PUSH2 0xD44 JUMP JUMPDEST SWAP1 SWAP2 SSTORE POP POP DUP1 ISZERO PUSH2 0x44F JUMPI PUSH1 0x40 MLOAD PUSH3 0x461BCD PUSH1 0xE5 SHL DUP2 MSTORE PUSH1 0x4 ADD PUSH2 0x446 SWAP1 PUSH2 0xD5D JUMP JUMPDEST PUSH1 0x40 MLOAD DUP1 SWAP2 SUB SWAP1 REVERT JUMPDEST PUSH4 0x3B9ACA00 PUSH1 0x0 PUSH2 0x45F DUP3 PUSH2 0x287 JUMP JUMPDEST CALLER PUSH1 0x0 SWAP1 DUP2 MSTORE PUSH1 0x8 PUSH1 0x20 MSTORE PUSH1 0x40 DUP2 KECCAK256 DUP1 SLOAD SWAP3 SWAP4 POP DUP4 SWAP3 SWAP1 SWAP2 SWAP1 PUSH2 0x483 SWAP1 DUP5 SWAP1 PUSH2 0xD8A JUMP JUMPDEST SWAP1 SWAP2 SSTORE POP POP PUSH1 0x40 MLOAD DUP3 DUP2 MSTORE CALLER SWAP1 PUSH32 0x186895C810586C5134A2994019549E2BCE20E56A367FA9F644485BF01B21D5D3 SWAP1 PUSH1 0x20 ADD PUSH1 0x40 MLOAD DUP1 SWAP2 SUB SWAP1 LOG2 PUSH2 0x4C7 DUP5 DUP4 PUSH2 0x93D JUMP JUMPDEST PUSH2 0x4D1 CALLER DUP4 PUSH2 0xA98 JUMP JUMPDEST POP POP PUSH1 0xA DUP1 SLOAD SWAP1 PUSH1 0x0 PUSH2 0x4E3 DUP4 PUSH2 0xDA3 JUMP JUMPDEST SWAP2 SWAP1 POP SSTORE POP POP POP JUMP JUMPDEST PUSH1 0xA DUP1 SLOAD SWAP1 DUP2 SWAP1 PUSH1 0x0 PUSH2 0x4FE DUP4 PUSH2 0xD44 JUMP JUMPDEST SWAP1 SWAP2 SSTORE POP POP DUP1 ISZERO PUSH2 0x521 JUMPI PUSH1 0x40 MLOAD PUSH3 0x461BCD PUSH1 0xE5 SHL DUP2 MSTORE PUSH1 0x4 ADD PUSH2 0x446 SWAP1 PUSH2 0xD5D JUMP JUMPDEST CALLER PUSH1 0x0 SWAP1 DUP2 MSTORE PUSH1 0x7 PUSH1 0x20 MSTORE PUSH1 0x40 SWAP1 KECCAK256 SLOAD PUSH1 0x1 PUSH1 0x1 PUSH1 0xA0 SHL SUB AND ISZERO PUSH2 0x587 JUMPI PUSH1 0x40 MLOAD PUSH3 0x461BCD PUSH1 0xE5 SHL DUP2 MSTORE PUSH1 0x20 PUSH1 0x4 DUP3 ADD MSTORE PUSH1 0x17 PUSH1 0x24 DUP3 ADD MSTORE PUSH32 0x5573657220616C72656164792072656769737465726564000000000000000000 PUSH1 0x44 DUP3 ADD MSTORE PUSH1 0x64 ADD PUSH2 0x446 JUMP JUMPDEST CALLER PUSH1 0x0 DUP2 DUP2 MSTORE PUSH1 0x7 PUSH1 0x20 MSTORE PUSH1 0x40 DUP1 DUP3 KECCAK256 DUP1 SLOAD PUSH1 0x1 PUSH1 0x1 PUSH1 0xA0 SHL SUB NOT AND PUSH1 0x1 PUSH1 0x1 PUSH1 0xA0 SHL SUB DUP8 AND SWAP1 DUP2 OR SWAP1 SWAP2 SSTORE SWAP1 MLOAD SWAP1 SWAP3 SWAP2 PUSH32 0x2138B9314634F9FDD5E49BEE3EAF17CA557B6637524D0DB759711C3BFCD3D850 SWAP2 LOG3 PUSH1 0xA DUP1 SLOAD SWAP1 PUSH1 0x0 PUSH2 0x4E3 DUP4 PUSH2 0xDA3 JUMP JUMPDEST PUSH1 0xA DUP1 SLOAD SWAP1 DUP2 SWAP1 PUSH1 0x0 PUSH2 0x5FD DUP4 PUSH2 0xD44 JUMP JUMPDEST SWAP1 SWAP2 SSTORE POP POP DUP1 ISZERO PUSH2 0x620 JUMPI PUSH1 0x40 MLOAD PUSH3 0x461BCD PUSH1 0xE5 SHL DUP2 MSTORE PUSH1 0x4 ADD PUSH2 0x446 SWAP1 PUSH2 0xD5D JUMP JUMPDEST CALLER PUSH1 0x0 SWAP1 DUP2 MSTORE PUSH1 0x8 PUSH1 0x20 MSTORE PUSH1 0x40 SWAP1 KECCAK256 SLOAD PUSH2 0x672 JUMPI PUSH1 0x40 MLOAD PUSH3 0x461BCD PUSH1 0xE5 SHL DUP2 MSTORE PUSH1 0x20 PUSH1 0x4 DUP3 ADD MSTORE PUSH1 0x13 PUSH1 0x24 DUP3 ADD MSTORE PUSH19 0x155CD95C88191BD95CC81B9BDD08195E1A5CDD PUSH1 0x6A SHL PUSH1 0x44 DUP3 ADD MSTORE PUSH1 0x64 ADD PUSH2 0x446 JUMP JUMPDEST CALLER PUSH1 0x0 SWAP1 DUP2 MSTORE PUSH1 0x8 PUSH1 0x20 MSTORE PUSH1 0x40 DUP2 KECCAK256 SLOAD SWAP1 PUSH2 0x68C DUP3 PUSH2 0x287 JUMP JUMPDEST CALLER PUSH1 0x0 DUP2 DUP2 MSTORE PUSH1 0x8 PUSH1 0x20 SWAP1 DUP2 MSTORE PUSH1 0x40 DUP1 DUP4 KECCAK256 SWAP3 SWAP1 SWAP3 SSTORE DUP2 MLOAD DUP7 DUP2 MSTORE SWAP1 DUP2 ADD DUP5 SWAP1 MSTORE SWAP3 SWAP4 POP SWAP1 SWAP2 PUSH32 0x2C57DEC1DB0095A6B800C2698D5BBCEEF2C180C6AC43429769A719658983F677 SWAP2 ADD PUSH1 0x40 MLOAD DUP1 SWAP2 SUB SWAP1 LOG2 POP POP PUSH1 0xA DUP1 SLOAD SWAP1 PUSH1 0x0 PUSH2 0x6EF DUP4 PUSH2 0xDA3 JUMP JUMPDEST SWAP2 SWAP1 POP SSTORE POP POP JUMP JUMPDEST PUSH1 0x0 SLOAD PUSH1 0x1 PUSH1 0x1 PUSH1 0xA0 SHL SUB AND CALLER EQ PUSH2 0x721 JUMPI PUSH1 0x40 MLOAD PUSH3 0x461BCD PUSH1 0xE5 SHL DUP2 MSTORE PUSH1 0x4 ADD PUSH2 0x446 SWAP1 PUSH2 0xDBA JUMP JUMPDEST PUSH1 0x0 SLOAD PUSH1 0x40 MLOAD PUSH4 0xA9059CBB PUSH1 0xE0 SHL DUP2 MSTORE PUSH1 0x1 PUSH1 0x1 PUSH1 0xA0 SHL SUB SWAP2 DUP3 AND PUSH1 0x4 DUP3 ADD MSTORE PUSH1 0x24 DUP2 ADD DUP4 SWAP1 MSTORE SWAP1 DUP4 AND SWAP1 PUSH4 0xA9059CBB SWAP1 PUSH1 0x44 ADD PUSH1 0x20 PUSH1 0x40 MLOAD DUP1 DUP4 SUB DUP2 PUSH1 0x0 DUP8 GAS CALL ISZERO DUP1 ISZERO PUSH2 0x774 JUMPI RETURNDATASIZE PUSH1 0x0 DUP1 RETURNDATACOPY RETURNDATASIZE PUSH1 0x0 REVERT JUMPDEST POP POP POP POP PUSH1 0x40 MLOAD RETURNDATASIZE PUSH1 0x1F NOT PUSH1 0x1F DUP3 ADD AND DUP3 ADD DUP1 PUSH1 0x40 MSTORE POP DUP2 ADD SWAP1 PUSH2 0x798 SWAP2 SWAP1 PUSH2 0xDE2 JUMP JUMPDEST PUSH2 0x7D6 JUMPI PUSH1 0x40 MLOAD PUSH3 0x461BCD PUSH1 0xE5 SHL DUP2 MSTORE PUSH1 0x20 PUSH1 0x4 DUP3 ADD MSTORE PUSH1 0xF PUSH1 0x24 DUP3 ADD MSTORE PUSH15 0x151C985B9CD9995C8819985A5B1959 PUSH1 0x8A SHL PUSH1 0x44 DUP3 ADD MSTORE PUSH1 0x64 ADD PUSH2 0x446 JUMP JUMPDEST DUP2 PUSH1 0x1 PUSH1 0x1 PUSH1 0xA0 SHL SUB AND PUSH32 0x7084F5476618D8E60B11EF0D7D3F06914655ADB8793E28FF7F018D4C76D505D5 DUP3 PUSH1 0x40 MLOAD PUSH2 0x811 SWAP2 DUP2 MSTORE PUSH1 0x20 ADD SWAP1 JUMP JUMPDEST PUSH1 0x40 MLOAD DUP1 SWAP2 SUB SWAP1 LOG2 POP POP JUMP JUMPDEST PUSH1 0x0 SLOAD PUSH1 0x1 PUSH1 0x1 PUSH1 0xA0 SHL SUB AND CALLER EQ PUSH2 0x847 JUMPI PUSH1 0x40 MLOAD PUSH3 0x461BCD PUSH1 0xE5 SHL DUP2 MSTORE PUSH1 0x4 ADD PUSH2 0x446 SWAP1 PUSH2 0xDBA JUMP JUMPDEST DUP3 PUSH1 0x1 SUB PUSH2 0x859 JUMPI PUSH1 0x4 DUP2 SWAP1 SSTORE PUSH2 0x879 JUMP JUMPDEST DUP3 PUSH1 0x2 SUB PUSH2 0x86B JUMPI PUSH1 0x5 DUP2 SWAP1 SSTORE PUSH2 0x879 JUMP JUMPDEST DUP3 PUSH1 0x3 SUB PUSH2 0x879 JUMPI PUSH1 0x6 DUP2 SWAP1 SSTORE JUMPDEST PUSH1 0x40 DUP1 MLOAD DUP5 DUP2 MSTORE PUSH1 0x20 DUP2 ADD DUP5 SWAP1 MSTORE SWAP1 DUP2 ADD DUP3 SWAP1 MSTORE PUSH32 0xC4A2169BF72E203B34EAEA3FE6954C92ECD3B55741D8F6EB8031A2F7E283E3F5 SWAP1 PUSH1 0x60 ADD PUSH1 0x40 MLOAD DUP1 SWAP2 SUB SWAP1 LOG1 POP POP POP JUMP JUMPDEST PUSH1 0x0 SLOAD PUSH1 0x1 PUSH1 0x1 PUSH1 0xA0 SHL SUB AND CALLER EQ PUSH2 0x8E9 JUMPI PUSH1 0x40 MLOAD PUSH3 0x461BCD PUSH1 0xE5 SHL DUP2 MSTORE PUSH1 0x4 ADD PUSH2 0x446 SWAP1 PUSH2 0xDBA JUMP JUMPDEST PUSH1 0x3 DUP1 SLOAD PUSH1 0x1 PUSH1 0x1 PUSH1 0xA0 SHL SUB NOT AND PUSH1 0x1 PUSH1 0x1 PUSH1 0xA0 SHL SUB DUP4 AND SWAP1 DUP2 OR SWAP1 SWAP2 SSTORE PUSH1 0x40 MLOAD SWAP1 DUP2 MSTORE PUSH32 0x7CD91BB102D5B88808255AA4B0877F151C1C4D2E61DEEF286B983F293EEA60AB SWAP1 PUSH1 0x20 ADD PUSH1 0x40 MLOAD DUP1 SWAP2 SUB SWAP1 LOG1 POP JUMP JUMPDEST PUSH1 0x1 PUSH1 0x1 PUSH1 0xA0 SHL SUB DUP3 AND ISZERO PUSH2 0xA94 JUMPI PUSH1 0x0 PUSH1 0x64 PUSH2 0x95B DUP4 PUSH1 0x5 PUSH2 0xE04 JUMP JUMPDEST PUSH2 0x965 SWAP2 SWAP1 PUSH2 0xE1B JUMP JUMPDEST PUSH1 0x1 PUSH1 0x1 PUSH1 0xA0 SHL SUB DUP5 AND PUSH1 0x0 SWAP1 DUP2 MSTORE PUSH1 0x8 PUSH1 0x20 MSTORE PUSH1 0x40 DUP2 KECCAK256 DUP1 SLOAD SWAP3 SWAP4 POP DUP4 SWAP3 SWAP1 SWAP2 SWAP1 PUSH2 0x992 SWAP1 DUP5 SWAP1 PUSH2 0xD8A JUMP JUMPDEST SWAP1 SWAP2 SSTORE POP POP PUSH1 0x40 DUP1 MLOAD DUP3 DUP2 MSTORE PUSH1 0x1 PUSH1 0x20 DUP3 ADD MSTORE CALLER SWAP2 PUSH1 0x1 PUSH1 0x1 PUSH1 0xA0 SHL SUB DUP7 AND SWAP2 PUSH32 0xDAFE43814723EBFAE33976DA0508BE80144BB89E46846D073002730D96E69227 SWAP2 ADD PUSH1 0x40 MLOAD DUP1 SWAP2 SUB SWAP1 LOG3 PUSH1 0x1 PUSH1 0x1 PUSH1 0xA0 SHL SUB DUP1 DUP5 AND PUSH1 0x0 SWAP1 DUP2 MSTORE PUSH1 0x7 PUSH1 0x20 MSTORE PUSH1 0x40 SWAP1 KECCAK256 SLOAD AND DUP1 ISZERO PUSH2 0xA91 JUMPI PUSH1 0x0 PUSH1 0x64 PUSH2 0xA0D DUP6 PUSH1 0x3 PUSH2 0xE04 JUMP JUMPDEST PUSH2 0xA17 SWAP2 SWAP1 PUSH2 0xE1B JUMP JUMPDEST PUSH1 0x1 PUSH1 0x1 PUSH1 0xA0 SHL SUB DUP4 AND PUSH1 0x0 SWAP1 DUP2 MSTORE PUSH1 0x8 PUSH1 0x20 MSTORE PUSH1 0x40 DUP2 KECCAK256 DUP1 SLOAD SWAP3 SWAP4 POP DUP4 SWAP3 SWAP1 SWAP2 SWAP1 PUSH2 0xA44 SWAP1 DUP5 SWAP1 PUSH2 0xD8A JUMP JUMPDEST SWAP1 SWAP2 SSTORE POP POP PUSH1 0x40 DUP1 MLOAD DUP3 DUP2 MSTORE PUSH1 0x0 PUSH1 0x20 DUP3 ADD MSTORE CALLER SWAP2 PUSH1 0x1 PUSH1 0x1 PUSH1 0xA0 SHL SUB DUP6 AND SWAP2 PUSH32 0xDAFE43814723EBFAE33976DA0508BE80144BB89E46846D073002730D96E69227 SWAP2 ADD PUSH1 0x40 MLOAD DUP1 SWAP2 SUB SWAP1 LOG3 POP JUMPDEST POP POP JUMPDEST POP POP JUMP JUMPDEST PUSH1 0x0 PUSH1 0x64 PUSH2 0xAA7 DUP4 PUSH1 0xA PUSH2 0xE04 JUMP JUMPDEST PUSH2 0xAB1 SWAP2 SWAP1 PUSH2 0xE1B JUMP JUMPDEST PUSH1 0x1 PUSH1 0x1 PUSH1 0xA0 SHL SUB DUP5 AND PUSH1 0x0 SWAP1 DUP2 MSTORE PUSH1 0x8 PUSH1 0x20 MSTORE PUSH1 0x40 DUP2 KECCAK256 DUP1 SLOAD SWAP3 SWAP4 POP DUP4 SWAP3 SWAP1 SWAP2 SWAP1 PUSH2 0xADE SWAP1 DUP5 SWAP1 PUSH2 0xD8A JUMP JUMPDEST SWAP1 SWAP2 SSTORE POP POP PUSH1 0x40 MLOAD DUP2 DUP2 MSTORE PUSH1 0x1 PUSH1 0x1 PUSH1 0xA0 SHL SUB DUP5 AND SWAP1 PUSH32 0x783EEFF930916A36777F27A7FEA6ADD1C0393D392960BAFC7EC85712CDB37802 SWAP1 PUSH1 0x20 ADD PUSH1 0x40 MLOAD DUP1 SWAP2 SUB SWAP1 LOG2 POP POP POP JUMP JUMPDEST DUP1 CALLDATALOAD PUSH1 0x1 PUSH1 0x1 PUSH1 0xA0 SHL SUB DUP2 AND DUP2 EQ PUSH2 0xB3D JUMPI PUSH1 0x0 DUP1 REVERT JUMPDEST SWAP2 SWAP1 POP JUMP JUMPDEST PUSH1 0x0 PUSH1 0x20 DUP3 DUP5 SUB SLT ISZERO PUSH2 0xB54 JUMPI PUSH1 0x0 DUP1 REVERT JUMPDEST PUSH2 0xB5D DUP3 PUSH2 0xB26 JUMP JUMPDEST SWAP4 SWAP3 POP POP POP JUMP JUMPDEST PUSH1 0x0 PUSH1 0x20 DUP3 DUP5 SUB SLT ISZERO PUSH2 0xB76 JUMPI PUSH1 0x0 DUP1 REVERT JUMPDEST POP CALLDATALOAD SWAP2 SWAP1 POP JUMP JUMPDEST PUSH1 0x0 DUP1 PUSH1 0x40 DUP4 DUP6 SUB SLT ISZERO PUSH2 0xB90 JUMPI PUSH1 0x0 DUP1 REVERT JUMPDEST PUSH2 0xB99 DUP4 PUSH2 0xB26 JUMP JUMPDEST SWAP5 PUSH1 0x20 SWAP4 SWAP1 SWAP4 ADD CALLDATALOAD SWAP4 POP POP POP JUMP JUMPDEST PUSH1 0x0 DUP1 PUSH1 0x0 PUSH1 0x60 DUP5 DUP7 SUB SLT ISZERO PUSH2 0xBBC JUMPI PUSH1 0x0 DUP1 REVERT JUMPDEST POP POP DUP2 CALLDATALOAD SWAP4 PUSH1 0x20 DUP4 ADD CALLDATALOAD SWAP4 POP PUSH1 0x40 SWAP1 SWAP3 ADD CALLDATALOAD SWAP2 SWAP1 POP JUMP JUMPDEST PUSH4 0x4E487B71 PUSH1 0xE0 SHL PUSH1 0x0 MSTORE PUSH1 0x41 PUSH1 0x4 MSTORE PUSH1 0x24 PUSH1 0x0 REVERT JUMPDEST PUSH4 0x4E487B71 PUSH1 0xE0 SHL PUSH1 0x0 MSTORE PUSH1 0x32 PUSH1 0x4 MSTORE PUSH1 0x24 PUSH1 0x0 REVERT JUMPDEST PUSH1 0x0 PUSH1 0xA0 DUP3 ADD DUP8 DUP4 MSTORE PUSH1 0x20 DUP8 DUP2 DUP6 ADD MSTORE PUSH1 0xA0 PUSH1 0x40 DUP6 ADD MSTORE DUP2 DUP8 MLOAD DUP1 DUP5 MSTORE PUSH1 0xC0 DUP7 ADD SWAP2 POP DUP3 DUP10 ADD SWAP4 POP PUSH1 0x0 JUMPDEST DUP2 DUP2 LT ISZERO PUSH2 0xC4F JUMPI DUP5 MLOAD PUSH1 0x1 PUSH1 0x1 PUSH1 0xA0 SHL SUB AND DUP4 MSTORE SWAP4 DUP4 ADD SWAP4 SWAP2 DUP4 ADD SWAP2 PUSH1 0x1 ADD PUSH2 0xC2A JUMP JUMPDEST POP POP PUSH1 0x1 PUSH1 0x1 PUSH1 0xA0 SHL SUB SWAP7 SWAP1 SWAP7 AND PUSH1 0x60 DUP6 ADD MSTORE POP POP POP PUSH1 0x80 ADD MSTORE SWAP4 SWAP3 POP POP POP JUMP JUMPDEST PUSH1 0x0 PUSH1 0x20 DUP1 DUP4 DUP6 SUB SLT ISZERO PUSH2 0xC83 JUMPI PUSH1 0x0 DUP1 REVERT JUMPDEST DUP3 MLOAD PUSH8 0xFFFFFFFFFFFFFFFF DUP1 DUP3 GT ISZERO PUSH2 0xC9B JUMPI PUSH1 0x0 DUP1 REVERT JUMPDEST DUP2 DUP6 ADD SWAP2 POP DUP6 PUSH1 0x1F DUP4 ADD SLT PUSH2 0xCAF JUMPI PUSH1 0x0 DUP1 REVERT JUMPDEST DUP2 MLOAD DUP2 DUP2 GT ISZERO PUSH2 0xCC1 JUMPI PUSH2 0xCC1 PUSH2 0xBD3 JUMP JUMPDEST DUP1 PUSH1 0x5 SHL PUSH1 0x40 MLOAD PUSH1 0x1F NOT PUSH1 0x3F DUP4 ADD AND DUP2 ADD DUP2 DUP2 LT DUP6 DUP3 GT OR ISZERO PUSH2 0xCE6 JUMPI PUSH2 0xCE6 PUSH2 0xBD3 JUMP JUMPDEST PUSH1 0x40 MSTORE SWAP2 DUP3 MSTORE DUP5 DUP3 ADD SWAP3 POP DUP4 DUP2 ADD DUP6 ADD SWAP2 DUP9 DUP4 GT ISZERO PUSH2 0xD04 JUMPI PUSH1 0x0 DUP1 REVERT JUMPDEST SWAP4 DUP6 ADD SWAP4 JUMPDEST DUP3 DUP6 LT ISZERO PUSH2 0xD22 JUMPI DUP5 MLOAD DUP5 MSTORE SWAP4 DUP6 ADD SWAP4 SWAP3 DUP6 ADD SWAP3 PUSH2 0xD09 JUMP JUMPDEST SWAP9 SWAP8 POP POP POP POP POP POP POP POP JUMP JUMPDEST PUSH4 0x4E487B71 PUSH1 0xE0 SHL PUSH1 0x0 MSTORE PUSH1 0x11 PUSH1 0x4 MSTORE PUSH1 0x24 PUSH1 0x0 REVERT JUMPDEST PUSH1 0x0 PUSH1 0x1 DUP3 ADD PUSH2 0xD56 JUMPI PUSH2 0xD56 PUSH2 0xD2E JUMP JUMPDEST POP PUSH1 0x1 ADD SWAP1 JUMP JUMPDEST PUSH1 0x20 DUP1 DUP3 MSTORE PUSH1 0x13 SWAP1 DUP3 ADD MSTORE PUSH19 0x1499595B9D1C985B98DE4819195D1958DD1959 PUSH1 0x6A SHL PUSH1 0x40 DUP3 ADD MSTORE PUSH1 0x60 ADD SWAP1 JUMP JUMPDEST DUP1 DUP3 ADD DUP1 DUP3 GT ISZERO PUSH2 0xD9D JUMPI PUSH2 0xD9D PUSH2 0xD2E JUMP JUMPDEST SWAP3 SWAP2 POP POP JUMP JUMPDEST PUSH1 0x0 DUP2 PUSH2 0xDB2 JUMPI PUSH2 0xDB2 PUSH2 0xD2E JUMP JUMPDEST POP PUSH1 0x0 NOT ADD SWAP1 JUMP JUMPDEST PUSH1 0x20 DUP1 DUP3 MSTORE PUSH1 0xE SWAP1 DUP3 ADD MSTORE PUSH14 0x139BDD08185D5D1A1BDC9A5E9959 PUSH1 0x92 SHL PUSH1 0x40 DUP3 ADD MSTORE PUSH1 0x60 ADD SWAP1 JUMP JUMPDEST PUSH1 0x0 PUSH1 0x20 DUP3 DUP5 SUB SLT ISZERO PUSH2 0xDF4 JUMPI PUSH1 0x0 DUP1 REVERT JUMPDEST DUP2 MLOAD DUP1 ISZERO ISZERO DUP2 EQ PUSH2 0xB5D JUMPI PUSH1 0x0 DUP1 REVERT JUMPDEST DUP1 DUP3 MUL DUP2 ISZERO DUP3 DUP3 DIV DUP5 EQ OR PUSH2 0xD9D JUMPI PUSH2 0xD9D PUSH2 0xD2E JUMP JUMPDEST PUSH1 0x0 DUP3 PUSH2 0xE38 JUMPI PUSH4 0x4E487B71 PUSH1 0xE0 SHL PUSH1 0x0 MSTORE PUSH1 0x12 PUSH1 0x4 MSTORE PUSH1 0x24 PUSH1 0x0 REVERT JUMPDEST POP DIV SWAP1 JUMP INVALID LOG2 PUSH5 0x6970667358 0x22 SLT KECCAK256 0xE2 SWAP8 PUSH22 0x2FEFBF9BF7BD1B5355F29803FDAE7DE9152B15287B28 0xA8 DUP13 0xB4 0xC1 0x4B CALLDATACOPY 0x2D PUSH5 0x736F6C6343 STOP ADDMOD EQ STOP CALLER "},"gasEstimates":{"creation":{"codeDepositCost":"739800","executionCost":"infinite","totalCost":"infinite"},"external":{"_swapUSDTToDOGE(uint256)":"infinite","communityLevel1RewardPercent()":"2350","communityLevel2RewardPercent()":"2394","communityLevel3RewardPercent()":"2329","doge()":"2404","owner()":"2404","pancakeRouter()":"2359","purchasePackage(address)":"infinite","referrers(address)":"2647","registerUser(address)":"77052","releaseDOGE()":"infinite","setCommunityLevel(uint256,uint256,uint256)":"26249","setPancakeRouter(address)":"27852","usdt()":"2382","userBalance(address)":"2532","userLevel(address)":"2531","withdrawToken(address,uint256)":"infinite"},"internal":{"_distributeReferralRewards(address,uint256)":"infinite","_distributeTeamRewards(address,uint256)":"infinite"}},"methodIdentifiers":{"_swapUSDTToDOGE(uint256)":"0d55b205","communityLevel1RewardPercent()":"d11d86a9","communityLevel2RewardPercent()":"ffff6b3e","communityLevel3RewardPercent()":"847b1dc4","doge()":"34809ee7","owner()":"8da5cb5b","pancakeRouter()":"c21ebd07","purchasePackage(address)":"1f420cb9","referrers(address)":"4a3b68cc","registerUser(address)":"2199d5cd","releaseDOGE()":"76dce785","setCommunityLevel(uint256,uint256,uint256)":"ca2540f9","setPancakeRouter(address)":"f8316c90","usdt()":"2f48ab7d","userBalance(address)":"0103c92b","userLevel(address)":"280e31cc","withdrawToken(address,uint256)":"9e281a98"}},"storageLayout":{"storage":[{"astId":886,"contract":"contracts/RewardDistribution.sol:RewardDistribution","label":"owner","offset":0,"slot":"0","type":"t_address"},{"astId":888,"contract":"contracts/RewardDistribution.sol:RewardDistribution","label":"usdt","offset":0,"slot":"1","type":"t_address"},{"astId":890,"contract":"contracts/RewardDistribution.sol:RewardDistribution","label":"doge","offset":0,"slot":"2","type":"t_address"},{"astId":893,"contract":"contracts/RewardDistribution.sol:RewardDistribution","label":"pancakeRouter","offset":0,"slot":"3","type":"t_contract(IRouter)849"},{"astId":896,"contract":"contracts/RewardDistribution.sol:RewardDistribution","label":"communityLevel1RewardPercent","offset":0,"slot":"4","type":"t_uint256"},{"astId":899,"contract":"contracts/RewardDistribution.sol:RewardDistribution","label":"communityLevel2RewardPercent","offset":0,"slot":"5","type":"t_uint256"},{"astId":902,"contract":"contracts/RewardDistribution.sol:RewardDistribution","label":"communityLevel3RewardPercent","offset":0,"slot":"6","type":"t_uint256"},{"astId":906,"contract":"contracts/RewardDistribution.sol:RewardDistribution","label":"referrers","offset":0,"slot":"7","type":"t_mapping(t_address,t_address)"},{"astId":910,"contract":"contracts/RewardDistribution.sol:RewardDistribution","label":"userBalance","offset":0,"slot":"8","type":"t_mapping(t_address,t_uint256)"},{"astId":914,"contract":"contracts/RewardDistribution.sol:RewardDistribution","label":"userLevel","offset":0,"slot":"9","type":"t_mapping(t_address,t_uint256)"},{"astId":1023,"contract":"contracts/RewardDistribution.sol:RewardDistribution","label":"_counter","offset":0,"slot":"10","type":"t_uint256"}],"types":{"t_address":{"encoding":"inplace","label":"address","numberOfBytes":"20"},"t_contract(IRouter)849":{"encoding":"inplace","label":"contract IRouter","numberOfBytes":"20"},"t_mapping(t_address,t_address)":{"encoding":"mapping","key":"t_address","label":"mapping(address => address)","numberOfBytes":"32","value":"t_address"},"t_mapping(t_address,t_uint256)":{"encoding":"mapping","key":"t_address","label":"mapping(address => uint256)","numberOfBytes":"32","value":"t_uint256"},"t_uint256":{"encoding":"inplace","label":"uint256","numberOfBytes":"32"}}},"userdoc":{"kind":"user","methods":{},"version":1}}}}